:020000040000FA
:020000000B28CB
:10000800DE00030E8312A0000A08A1007D290C2837
:100018008312B201B301B401B501B601B701B80149
:1000280083011628F221BC21DF21E9214C21DF00C0
:100038005F088312B9003903031D2328242889285F
:10004800D12182284C21DF005F088312B9003603D2
:10005800031D2F283028432810303802031C352868
:10006800362843283903031D3A283B284328D12141
:100078008312B409B8010230DF005F08B300340806
:10008800031D472848284A2805128516340A031DE7
:100098004E284F285128851205160330B1008A30A2
:1000A800B0005530AF00AF0B5728B00B5728B10B35
:1000B80057285E288312051685160330B1008A304A
:1000C800B0005530AF00AF0B6728B00B6728B10BF5
:1000D80067286E280130DF005F088312B7070230F7
:1000E8003906031D782879288228D12183123408FB
:1000F8008F20FF30DF005F088312B7003D30831286
:100108003702031C882889282628B3010516851676
:10011800F7211A280B288312AD00AC012D08031D06
:10012800962897289B280530DF005F08AE002D0A27
:10013800031D9F28A028ED280A30DF005F08AE00C5
:10014800ED283203031DA928AA28B828B2012B08D4
:10015800031DAF28B028B6280130AE027230DF0088
:100168005F08AB000130AB021014051405128512AC
:100178000230AA004530A900A930A800A80BC2285F
:10018800A90BC228AA0BC228C928831205168516EE
:100198000230AA004530A900A930A800A80BD2282F
:1001A800A90BD228AA0BD228D928A521DF005F08DD
:1001B8008312B6003603031DE228E328ED28103029
:1001C8003802031CE828E928ED28AC01AC0AB8017C
:1001D800AE012E08031DF128F228A52810100510DD
:1001E8002C08F72008008312A5002508031DFD2808
:1001F800FE282529A60185140230A4008630A30014
:100208009930A200A20B0629A30B0629A40B0629E4
:10021800831285100230A4008630A3009930A20012
:10022800A20B1429A30B1429A40B14290130DF00F5
:100238005F088312A60710302602031C24292529EB
:10024800FF282503031D29292A294B29A7018514DD
:100258008230A300DD30A200A20B3029A30B302985
:100268003529831285108230A300DD30A200A20B4D
:100278003B29A30B3B2940290130DF005F0883128B
:10028800A70704302702031C4A294B292B290800F9
:10029800A521DF005F088312B6003608350603196A
:1002A8005629572967290130DF005F08B3076729F6
:1002B800A50177290230DF005F08A500B30177297F
:1002C800A501A50A77293308A300A4012408003A48
:1002D80003196F2964292308003A03195C29043A91
:1002E80003195E2964293608DF005F08B500250870
:1002F80008008B1D802981298E290B1C84298529BA
:100308008E298519882989298D2985198C298D296E
:100318008E290B1083160C1C922993299D29831270
:100328000C1C972998299D29B201B20A0C108E013C
:100338008F01831221088A00200E8300DE0E5E0ED4
:10034800090083128519A929AA29B829AB2983127A
:100358008519AF29B029BA290130DF005F08B8072D
:10036800B701A201A20ABA29B801A201220808000D
:1003780083169F01073083129900C83083168500C1
:1003880095018312051085100511051685168B1722
:100398000B178B1583169615080083128514823067
:1003A800A300DD30A200A20BD729A30BD729DC2993
:1003B8008312851008008312B801B701B401B60191
:1003C800B501B901B301B201080060308312900091
:1003D80083160C1483128E018F0108008316FF23E5
:0E03E80090008312080063000000000008006F
:00000001FF
